{
  "contractName": "ERC20CustomUpgradeableV2",
  "abi": [
    {
      "anonymous": false,
      "inputs": [
        {
          "indexed": false,
          "internalType": "address",
          "name": "previousAdmin",
          "type": "address"
        },
        {
          "indexed": false,
          "internalType": "address",
          "name": "newAdmin",
          "type": "address"
        }
      ],
      "name": "AdminChanged",
      "type": "event"
    },
    {
      "anonymous": false,
      "inputs": [
        {
          "indexed": true,
          "internalType": "address",
          "name": "owner",
          "type": "address"
        },
        {
          "indexed": true,
          "internalType": "address",
          "name": "spender",
          "type": "address"
        },
        {
          "indexed": false,
          "internalType": "uint256",
          "name": "value",
          "type": "uint256"
        }
      ],
      "name": "Approval",
      "type": "event"
    },
    {
      "anonymous": false,
      "inputs": [
        {
          "indexed": true,
          "internalType": "address",
          "name": "beacon",
          "type": "address"
        }
      ],
      "name": "BeaconUpgraded",
      "type": "event"
    },
    {
      "anonymous": false,
      "inputs": [
        {
          "indexed": true,
          "internalType": "address",
          "name": "from",
          "type": "address"
        },
        {
          "indexed": true,
          "internalType": "address",
          "name": "to",
          "type": "address"
        },
        {
          "indexed": false,
          "internalType": "uint256",
          "name": "value",
          "type": "uint256"
        }
      ],
      "name": "Transfer",
      "type": "event"
    },
    {
      "anonymous": false,
      "inputs": [
        {
          "indexed": true,
          "internalType": "address",
          "name": "implementation",
          "type": "address"
        }
      ],
      "name": "Upgraded",
      "type": "event"
    },
    {
      "inputs": [
        {
          "internalType": "address",
          "name": "owner",
          "type": "address"
        },
        {
          "internalType": "address",
          "name": "spender",
          "type": "address"
        }
      ],
      "name": "allowance",
      "outputs": [
        {
          "internalType": "uint256",
          "name": "",
          "type": "uint256"
        }
      ],
      "stateMutability": "view",
      "type": "function",
      "constant": true
    },
    {
      "inputs": [
        {
          "internalType": "address",
          "name": "spender",
          "type": "address"
        },
        {
          "internalType": "uint256",
          "name": "amount",
          "type": "uint256"
        }
      ],
      "name": "approve",
      "outputs": [
        {
          "internalType": "bool",
          "name": "",
          "type": "bool"
        }
      ],
      "stateMutability": "nonpayable",
      "type": "function"
    },
    {
      "inputs": [
        {
          "internalType": "address",
          "name": "account",
          "type": "address"
        }
      ],
      "name": "balanceOf",
      "outputs": [
        {
          "internalType": "uint256",
          "name": "",
          "type": "uint256"
        }
      ],
      "stateMutability": "view",
      "type": "function",
      "constant": true
    },
    {
      "inputs": [],
      "name": "count",
      "outputs": [
        {
          "internalType": "uint256",
          "name": "",
          "type": "uint256"
        }
      ],
      "stateMutability": "view",
      "type": "function",
      "constant": true
    },
    {
      "inputs": [],
      "name": "decimals",
      "outputs": [
        {
          "internalType": "uint8",
          "name": "",
          "type": "uint8"
        }
      ],
      "stateMutability": "view",
      "type": "function",
      "constant": true
    },
    {
      "inputs": [
        {
          "internalType": "address",
          "name": "spender",
          "type": "address"
        },
        {
          "internalType": "uint256",
          "name": "subtractedValue",
          "type": "uint256"
        }
      ],
      "name": "decreaseAllowance",
      "outputs": [
        {
          "internalType": "bool",
          "name": "",
          "type": "bool"
        }
      ],
      "stateMutability": "nonpayable",
      "type": "function"
    },
    {
      "inputs": [
        {
          "internalType": "address",
          "name": "spender",
          "type": "address"
        },
        {
          "internalType": "uint256",
          "name": "addedValue",
          "type": "uint256"
        }
      ],
      "name": "increaseAllowance",
      "outputs": [
        {
          "internalType": "bool",
          "name": "",
          "type": "bool"
        }
      ],
      "stateMutability": "nonpayable",
      "type": "function"
    },
    {
      "inputs": [],
      "name": "name",
      "outputs": [
        {
          "internalType": "string",
          "name": "",
          "type": "string"
        }
      ],
      "stateMutability": "view",
      "type": "function",
      "constant": true
    },
    {
      "inputs": [],
      "name": "proxiableUUID",
      "outputs": [
        {
          "internalType": "bytes32",
          "name": "",
          "type": "bytes32"
        }
      ],
      "stateMutability": "view",
      "type": "function",
      "constant": true
    },
    {
      "inputs": [],
      "name": "setMessage",
      "outputs": [
        {
          "internalType": "string",
          "name": "",
          "type": "string"
        }
      ],
      "stateMutability": "view",
      "type": "function",
      "constant": true
    },
    {
      "inputs": [],
      "name": "symbol",
      "outputs": [
        {
          "internalType": "string",
          "name": "",
          "type": "string"
        }
      ],
      "stateMutability": "view",
      "type": "function",
      "constant": true
    },
    {
      "inputs": [],
      "name": "totalSupply",
      "outputs": [
        {
          "internalType": "uint256",
          "name": "",
          "type": "uint256"
        }
      ],
      "stateMutability": "view",
      "type": "function",
      "constant": true
    },
    {
      "inputs": [
        {
          "internalType": "address",
          "name": "to",
          "type": "address"
        },
        {
          "internalType": "uint256",
          "name": "amount",
          "type": "uint256"
        }
      ],
      "name": "transfer",
      "outputs": [
        {
          "internalType": "bool",
          "name": "",
          "type": "bool"
        }
      ],
      "stateMutability": "nonpayable",
      "type": "function"
    },
    {
      "inputs": [
        {
          "internalType": "address",
          "name": "from",
          "type": "address"
        },
        {
          "internalType": "address",
          "name": "to",
          "type": "address"
        },
        {
          "internalType": "uint256",
          "name": "amount",
          "type": "uint256"
        }
      ],
      "name": "transferFrom",
      "outputs": [
        {
          "internalType": "bool",
          "name": "",
          "type": "bool"
        }
      ],
      "stateMutability": "nonpayable",
      "type": "function"
    },
    {
      "inputs": [
        {
          "internalType": "address",
          "name": "newImplementation",
          "type": "address"
        }
      ],
      "name": "upgradeTo",
      "outputs": [],
      "stateMutability": "nonpayable",
      "type": "function"
    },
    {
      "inputs": [
        {
          "internalType": "address",
          "name": "newImplementation",
          "type": "address"
        },
        {
          "internalType": "bytes",
          "name": "data",
          "type": "bytes"
        }
      ],
      "name": "upgradeToAndCall",
      "outputs": [],
      "stateMutability": "payable",
      "type": "function",
      "payable": true
    },
    {
      "inputs": [],
      "name": "initialize",
      "outputs": [],
      "stateMutability": "nonpayable",
      "type": "function"
    },
    {
      "inputs": [],
      "name": "increment",
      "outputs": [],
      "stateMutability": "nonpayable",
      "type": "function"
    },
    {
      "inputs": [],
      "name": "decrement",
      "outputs": [],
      "stateMutability": "nonpayable",
      "type": "function"
    },
    {
      "inputs": [],
      "name": "getCount",
      "outputs": [
        {
          "internalType": "uint256",
          "name": "",
          "type": "uint256"
        }
      ],
      "stateMutability": "view",
      "type": "function",
      "constant": true
    },
    {
      "inputs": [
        {
          "internalType": "string",
          "name": "_setText",
          "type": "string"
        }
      ],
      "name": "setText",
      "outputs": [],
      "stateMutability": "nonpayable",
      "type": "function"
    },
    {
      "inputs": [],
      "name": "getText",
      "outputs": [
        {
          "internalType": "string",
          "name": "",
          "type": "string"
        }
      ],
      "stateMutability": "view",
      "type": "function",
      "constant": true
    }
  ],
  "bytecode": "0x60a06040523073ffffffffffffffffffffffffffffffffffffffff1660809073ffffffffffffffffffffffffffffffffffffffff1681525034801561004357600080fd5b50608051612d8061007b60003960008181610634015281816106c301528181610867015281816108f601526109a60152612d806000f3fe6080604052600436106101355760003560e01c80635d3a1f9d116100ab578063a87d942c1161006f578063a87d942c14610409578063a9059cbb14610434578063d09de08a14610471578063dd62ed3e14610488578063e00fe2eb146104c5578063e90847f4146104f057610135565b80635d3a1f9d1461032457806370a082311461034d5780638129fc1c1461038a57806395d89b41146103a1578063a457c2d7146103cc57610135565b80632baeceb7116100fd5780632baeceb714610235578063313ce5671461024c5780633659cfe61461027757806339509351146102a05780634f1ef286146102dd57806352d1902d146102f957610135565b806306661abd1461013a57806306fdde0314610165578063095ea7b31461019057806318160ddd146101cd57806323b872dd146101f8575b600080fd5b34801561014657600080fd5b5061014f61051b565b60405161015c9190611c66565b60405180910390f35b34801561017157600080fd5b5061017a610521565b6040516101879190611d1a565b60405180910390f35b34801561019c57600080fd5b506101b760048036038101906101b29190611dda565b6105b3565b6040516101c49190611e35565b60405180910390f35b3480156101d957600080fd5b506101e26105d6565b6040516101ef9190611c66565b60405180910390f35b34801561020457600080fd5b5061021f600480360381019061021a9190611e50565b6105e0565b60405161022c9190611e35565b60405180910390f35b34801561024157600080fd5b5061024a61060f565b005b34801561025857600080fd5b50610261610629565b60405161026e9190611ebf565b60405180910390f35b34801561028357600080fd5b5061029e60048036038101906102999190611eda565b610632565b005b3480156102ac57600080fd5b506102c760048036038101906102c29190611dda565b6107bb565b6040516102d49190611e35565b60405180910390f35b6102f760048036038101906102f2919061203c565b610865565b005b34801561030557600080fd5b5061030e6109a2565b60405161031b91906120b1565b60405180910390f35b34801561033057600080fd5b5061034b6004803603810190610346919061216d565b610a5b565b005b34801561035957600080fd5b50610374600480360381019061036f9190611eda565b610a75565b6040516103819190611c66565b60405180910390f35b34801561039657600080fd5b5061039f610abe565b005b3480156103ad57600080fd5b506103b6610c32565b6040516103c39190611d1a565b60405180910390f35b3480156103d857600080fd5b506103f360048036038101906103ee9190611dda565b610cc4565b6040516104009190611e35565b60405180910390f35b34801561041557600080fd5b5061041e610dae565b60405161042b9190611c66565b60405180910390f35b34801561044057600080fd5b5061045b60048036038101906104569190611dda565b610db8565b6040516104689190611e35565b60405180910390f35b34801561047d57600080fd5b50610486610ddb565b005b34801561049457600080fd5b506104af60048036038101906104aa91906121b6565b610df7565b6040516104bc9190611c66565b60405180910390f35b3480156104d157600080fd5b506104da610e7e565b6040516104e79190611d1a565b60405180910390f35b3480156104fc57600080fd5b50610505610f10565b6040516105129190611d1a565b60405180910390f35b60ca5481565b60606036805461053090612225565b80601f016020809104026020016040519081016040528092919081815260200182805461055c90612225565b80156105a95780601f1061057e576101008083540402835291602001916105a9565b820191906000526020600020905b81548152906001019060200180831161058c57829003601f168201915b5050505050905090565b6000806105be610f9e565b90506105cb818585610fa6565b600191505092915050565b6000603554905090565b6000806105eb610f9e565b90506105f8858285611171565b6106038585856111fd565b60019150509392505050565b60ca600081548092919061062290612286565b9190505550565b60006012905090565b7f000000000000000000000000000000000000000000000000000000000000000073ffffffffffffffffffffffffffffffffffffffff163073ffffffffffffffffffffffffffffffffffffffff1614156106c1576040517f08c379a00000000000000000000000000000000000000000000000000000000081526004016106b890612322565b60405180910390fd5b7f000000000000000000000000000000000000000000000000000000000000000073ffffffffffffffffffffffffffffffffffffffff16610700611481565b73ffffffffffffffffffffffffffffffffffffffff1614610756576040517f08c379a000000000000000000000000000000000000000000000000000000000815260040161074d906123b4565b60405180910390fd5b61075f816114d8565b6107b881600067ffffffffffffffff81111561077e5761077d611f11565b5b6040519080825280601f01601f1916602001820160405280156107b05781602001600182028036833780820191505090505b5060006114db565b50565b6000806107c6610f9e565b905061085a818585603460008673ffffffffffffffffffffffffffffffffffffffff1673ffffffffffffffffffffffffffffffffffffffff16815260200190815260200160002060008973ffffffffffffffffffffffffffffffffffffffff1673ffffffffffffffffffffffffffffffffffffffff1681526020019081526020016000205461085591906123d4565b610fa6565b600191505092915050565b7f000000000000000000000000000000000000000000000000000000000000000073ffffffffffffffffffffffffffffffffffffffff163073ffffffffffffffffffffffffffffffffffffffff1614156108f4576040517f08c379a00000000000000000000000000000000000000000000000000000000081526004016108eb90612322565b60405180910390fd5b7f000000000000000000000000000000000000000000000000000000000000000073ffffffffffffffffffffffffffffffffffffffff16610933611481565b73ffffffffffffffffffffffffffffffffffffffff1614610989576040517f08c379a0000000000000000000000000000000000000000000000000000000008152600401610980906123b4565b60405180910390fd5b610992826114d8565b61099e828260016114db565b5050565b60007f000000000000000000000000000000000000000000000000000000000000000073ffffffffffffffffffffffffffffffffffffffff163073ffffffffffffffffffffffffffffffffffffffff1614610a32576040517f08c379a0000000000000000000000000000000000000000000000000000000008152600401610a299061249c565b60405180910390fd5b7f360894a13ba1a3210667c828492db98dca3e2076cc3735a920a3ca505d382bbc60001b905090565b8060c99080519060200190610a71929190611baa565b5050565b6000603360008373ffffffffffffffffffffffffffffffffffffffff1673ffffffffffffffffffffffffffffffffffffffff168152602001908152602001600020549050919050565b600060019054906101000a900460ff16610ae65760008054906101000a900460ff1615610aef565b610aee611649565b5b610b2e576040517f08c379a0000000000000000000000000000000000000000000000000000000008152600401610b259061252e565b60405180910390fd5b60008060019054906101000a900460ff161590508015610b7e576001600060016101000a81548160ff02191690831515021790555060016000806101000a81548160ff0219169083151502179055505b610bf26040518060400160405280600481526020017f4d617273000000000000000000000000000000000000000000000000000000008152506040518060400160405280600481526020017f4d4152530000000000000000000000000000000000000000000000000000000081525061165a565b610c0633690bc3a4806cfeba2c00006116b7565b610c0e611818565b8015610c2f5760008060016101000a81548160ff0219169083151502179055505b50565b606060378054610c4190612225565b80601f0160208091040260200160405190810160405280929190818152602001828054610c6d90612225565b8015610cba5780601f10610c8f57610100808354040283529160200191610cba565b820191906000526020600020905b815481529060010190602001808311610c9d57829003601f168201915b5050505050905090565b600080610ccf610f9e565b90506000603460008373ffffffffffffffffffffffffffffffffffffffff1673ffffffffffffffffffffffffffffffffffffffff16815260200190815260200160002060008673ffffffffffffffffffffffffffffffffffffffff1673ffffffffffffffffffffffffffffffffffffffff16815260200190815260200160002054905083811015610d95576040517f08c379a0000000000000000000000000000000000000000000000000000000008152600401610d8c906125c0565b60405180910390fd5b610da28286868403610fa6565b60019250505092915050565b600060ca54905090565b600080610dc3610f9e565b9050610dd08185856111fd565b600191505092915050565b600160ca6000828254610dee91906123d4565b92505081905550565b6000603460008473ffffffffffffffffffffffffffffffffffffffff1673ffffffffffffffffffffffffffffffffffffffff16815260200190815260200160002060008373ffffffffffffffffffffffffffffffffffffffff1673ffffffffffffffffffffffffffffffffffffffff16815260200190815260200160002054905092915050565b606060c98054610e8d90612225565b80601f0160208091040260200160405190810160405280929190818152602001828054610eb990612225565b8015610f065780601f10610edb57610100808354040283529160200191610f06565b820191906000526020600020905b815481529060010190602001808311610ee957829003601f168201915b5050505050905090565b60c98054610f1d90612225565b80601f0160208091040260200160405190810160405280929190818152602001828054610f4990612225565b8015610f965780601f10610f6b57610100808354040283529160200191610f96565b820191906000526020600020905b815481529060010190602001808311610f7957829003601f168201915b505050505081565b600033905090565b600073ffffffffffffffffffffffffffffffffffffffff168373ffffffffffffffffffffffffffffffffffffffff161415611016576040517f08c379a000000000000000000000000000000000000000000000000000000000815260040161100d90612652565b60405180910390fd5b600073ffffffffffffffffffffffffffffffffffffffff168273ffffffffffffffffffffffffffffffffffffffff161415611086576040517f08c379a000000000000000000000000000000000000000000000000000000000815260040161107d906126e4565b60405180910390fd5b80603460008573ffffffffffffffffffffffffffffffffffffffff1673ffffffffffffffffffffffffffffffffffffffff16815260200190815260200160002060008473ffffffffffffffffffffffffffffffffffffffff1673ffffffffffffffffffffffffffffffffffffffff168152602001908152602001600020819055508173ffffffffffffffffffffffffffffffffffffffff168373ffffffffffffffffffffffffffffffffffffffff167f8c5be1e5ebec7d5bd14f71427d1e84f3dd0314c0f7b2291e5b200ac8c7c3b925836040516111649190611c66565b60405180910390a3505050565b600061117d8484610df7565b90507fffffffffffffffffffffffffffffffffffffffffffffffffffffffffffffffff81146111f757818110156111e9576040517f08c379a00000000000000000000000000000000000000000000000000000000081526004016111e090612750565b60405180910390fd5b6111f68484848403610fa6565b5b50505050565b600073ffffffffffffffffffffffffffffffffffffffff168373ffffffffffffffffffffffffffffffffffffffff16141561126d576040517f08c379a0000000000000000000000000000000000000000000000000000000008152600401611264906127e2565b60405180910390fd5b600073ffffffffffffffffffffffffffffffffffffffff168273ffffffffffffffffffffffffffffffffffffffff1614156112dd576040517f08c379a00000000000000000000000000000000000000000000000000000000081526004016112d490612874565b60405180910390fd5b6112e8838383611869565b6000603360008573ffffffffffffffffffffffffffffffffffffffff1673ffffffffffffffffffffffffffffffffffffffff1681526020019081526020016000205490508181101561136f576040517f08c379a000000000000000000000000000000000000000000000000000000000815260040161136690612906565b60405180910390fd5b818103603360008673ffffffffffffffffffffffffffffffffffffffff1673ffffffffffffffffffffffffffffffffffffffff1681526020019081526020016000208190555081603360008573ffffffffffffffffffffffffffffffffffffffff1673ffffffffffffffffffffffffffffffffffffffff168152602001908152602001600020600082825461140491906123d4565b925050819055508273ffffffffffffffffffffffffffffffffffffffff168473ffffffffffffffffffffffffffffffffffffffff167fddf252ad1be2c89b69c2b068fc378daa952ba7f163c4a11628f55a4df523b3ef846040516114689190611c66565b60405180910390a361147b84848461186e565b50505050565b60006114af7f360894a13ba1a3210667c828492db98dca3e2076cc3735a920a3ca505d382bbc60001b611873565b60000160009054906101000a900473ffffffffffffffffffffffffffffffffffffffff16905090565b50565b6115077f4910fdfa16fed3260ed0e7147f7cc6da11a60208b5b9406d12a635614ffd914360001b61187d565b60000160009054906101000a900460ff161561152b5761152683611887565b611644565b8273ffffffffffffffffffffffffffffffffffffffff166352d1902d6040518163ffffffff1660e01b8152600401602060405180830381865afa92505050801561159357506040513d601f19601f820116820180604052508101906115909190612952565b60015b6115d2576040517f08c379a00000000000000000000000000000000000000000000000000000000081526004016115c9906129f1565b60405180910390fd5b7f360894a13ba1a3210667c828492db98dca3e2076cc3735a920a3ca505d382bbc60001b8114611637576040517f08c379a000000000000000000000000000000000000000000000000000000000815260040161162e90612a83565b60405180910390fd5b50611643838383611940565b5b505050565b60006116543061196c565b15905090565b600060019054906101000a900460ff166116a9576040517f08c379a00000000000000000000000000000000000000000000000000000000081526004016116a090612b15565b60405180910390fd5b6116b3828261198f565b5050565b600073ffffffffffffffffffffffffffffffffffffffff168273ffffffffffffffffffffffffffffffffffffffff161415611727576040517f08c379a000000000000000000000000000000000000000000000000000000000815260040161171e90612b81565b60405180910390fd5b61173360008383611869565b806035600082825461174591906123d4565b9250508190555080603360008473ffffffffffffffffffffffffffffffffffffffff1673ffffffffffffffffffffffffffffffffffffffff168152602001908152602001600020600082825461179b91906123d4565b925050819055508173ffffffffffffffffffffffffffffffffffffffff16600073ffffffffffffffffffffffffffffffffffffffff167fddf252ad1be2c89b69c2b068fc378daa952ba7f163c4a11628f55a4df523b3ef836040516118009190611c66565b60405180910390a36118146000838361186e565b5050565b600060019054906101000a900460ff16611867576040517f08c379a000000000000000000000000000000000000000000000000000000000815260040161185e90612b15565b60405180910390fd5b565b505050565b505050565b6000819050919050565b6000819050919050565b6118908161196c565b6118cf576040517f08c379a00000000000000000000000000000000000000000000000000000000081526004016118c690612c13565b60405180910390fd5b806118fc7f360894a13ba1a3210667c828492db98dca3e2076cc3735a920a3ca505d382bbc60001b611873565b60000160006101000a81548173ffffffffffffffffffffffffffffffffffffffff021916908373ffffffffffffffffffffffffffffffffffffffff16021790555050565b61194983611a10565b6000825111806119565750805b15611967576119658383611a5f565b505b505050565b6000808273ffffffffffffffffffffffffffffffffffffffff163b119050919050565b600060019054906101000a900460ff166119de576040517f08c379a00000000000000000000000000000000000000000000000000000000081526004016119d590612b15565b60405180910390fd5b81603690805190602001906119f4929190611baa565b508060379080519060200190611a0b929190611baa565b505050565b611a1981611887565b8073ffffffffffffffffffffffffffffffffffffffff167fbc7cd75a20ee27fd9adebab32041f755214dbc6bffa90cc0225b39da2e5c2d3b60405160405180910390a250565b6060611a6a8361196c565b611aa9576040517f08c379a0000000000000000000000000000000000000000000000000000000008152600401611aa090612ca5565b60405180910390fd5b6000808473ffffffffffffffffffffffffffffffffffffffff1684604051611ad19190612d0c565b600060405180830381855af49150503d8060008114611b0c576040519150601f19603f3d011682016040523d82523d6000602084013e611b11565b606091505b5091509150611b398282604051806060016040528060278152602001612d2460279139611b43565b9250505092915050565b60608315611b5357829050611ba3565b600083511115611b665782518084602001fd5b816040517f08c379a0000000000000000000000000000000000000000000000000000000008152600401611b9a9190611d1a565b60405180910390fd5b9392505050565b828054611bb690612225565b90600052602060002090601f016020900481019282611bd85760008555611c1f565b82601f10611bf157805160ff1916838001178555611c1f565b82800160010185558215611c1f579182015b82811115611c1e578251825591602001919060010190611c03565b5b509050611c2c9190611c30565b5090565b5b80821115611c49576000816000905550600101611c31565b5090565b6000819050919050565b611c6081611c4d565b82525050565b6000602082019050611c7b6000830184611c57565b92915050565b600081519050919050565b600082825260208201905092915050565b60005b83811015611cbb578082015181840152602081019050611ca0565b83811115611cca576000848401525b50505050565b6000601f19601f8301169050919050565b6000611cec82611c81565b611cf68185611c8c565b9350611d06818560208601611c9d565b611d0f81611cd0565b840191505092915050565b60006020820190508181036000830152611d348184611ce1565b905092915050565b6000604051905090565b600080fd5b600080fd5b600073ffffffffffffffffffffffffffffffffffffffff82169050919050565b6000611d7b82611d50565b9050919050565b611d8b81611d70565b8114611d9657600080fd5b50565b600081359050611da881611d82565b92915050565b611db781611c4d565b8114611dc257600080fd5b50565b600081359050611dd481611dae565b92915050565b60008060408385031215611df157611df0611d46565b5b6000611dff85828601611d99565b9250506020611e1085828601611dc5565b9150509250929050565b60008115159050919050565b611e2f81611e1a565b82525050565b6000602082019050611e4a6000830184611e26565b92915050565b600080600060608486031215611e6957611e68611d46565b5b6000611e7786828701611d99565b9350506020611e8886828701611d99565b9250506040611e9986828701611dc5565b9150509250925092565b600060ff82169050919050565b611eb981611ea3565b82525050565b6000602082019050611ed46000830184611eb0565b92915050565b600060208284031215611ef057611eef611d46565b5b6000611efe84828501611d99565b91505092915050565b600080fd5b600080fd5b7f4e487b7100000000000000000000000000000000000000000000000000000000600052604160045260246000fd5b611f4982611cd0565b810181811067ffffffffffffffff82111715611f6857611f67611f11565b5b80604052505050565b6000611f7b611d3c565b9050611f878282611f40565b919050565b600067ffffffffffffffff821115611fa757611fa6611f11565b5b611fb082611cd0565b9050602081019050919050565b82818337600083830152505050565b6000611fdf611fda84611f8c565b611f71565b905082815260208101848484011115611ffb57611ffa611f0c565b5b612006848285611fbd565b509392505050565b600082601f83011261202357612022611f07565b5b8135612033848260208601611fcc565b91505092915050565b6000806040838503121561205357612052611d46565b5b600061206185828601611d99565b925050602083013567ffffffffffffffff81111561208257612081611d4b565b5b61208e8582860161200e565b9150509250929050565b6000819050919050565b6120ab81612098565b82525050565b60006020820190506120c660008301846120a2565b92915050565b600067ffffffffffffffff8211156120e7576120e6611f11565b5b6120f082611cd0565b9050602081019050919050565b600061211061210b846120cc565b611f71565b90508281526020810184848401111561212c5761212b611f0c565b5b612137848285611fbd565b509392505050565b600082601f83011261215457612153611f07565b5b81356121648482602086016120fd565b91505092915050565b60006020828403121561218357612182611d46565b5b600082013567ffffffffffffffff8111156121a1576121a0611d4b565b5b6121ad8482850161213f565b91505092915050565b600080604083850312156121cd576121cc611d46565b5b60006121db85828601611d99565b92505060206121ec85828601611d99565b9150509250929050565b7f4e487b7100000000000000000000000000000000000000000000000000000000600052602260045260246000fd5b6000600282049050600182168061223d57607f821691505b60208210811415612251576122506121f6565b5b50919050565b7f4e487b7100000000000000000000000000000000000000000000000000000000600052601160045260246000fd5b600061229182611c4d565b915060008214156122a5576122a4612257565b5b600182039050919050565b7f46756e6374696f6e206d7573742062652063616c6c6564207468726f7567682060008201527f64656c656761746563616c6c0000000000000000000000000000000000000000602082015250565b600061230c602c83611c8c565b9150612317826122b0565b604082019050919050565b6000602082019050818103600083015261233b816122ff565b9050919050565b7f46756e6374696f6e206d7573742062652063616c6c6564207468726f7567682060008201527f6163746976652070726f78790000000000000000000000000000000000000000602082015250565b600061239e602c83611c8c565b91506123a982612342565b604082019050919050565b600060208201905081810360008301526123cd81612391565b9050919050565b60006123df82611c4d565b91506123ea83611c4d565b9250827fffffffffffffffffffffffffffffffffffffffffffffffffffffffffffffffff0382111561241f5761241e612257565b5b828201905092915050565b7f555550535570677261646561626c653a206d757374206e6f742062652063616c60008201527f6c6564207468726f7567682064656c656761746563616c6c0000000000000000602082015250565b6000612486603883611c8c565b91506124918261242a565b604082019050919050565b600060208201905081810360008301526124b581612479565b9050919050565b7f496e697469616c697a61626c653a20636f6e747261637420697320616c72656160008201527f647920696e697469616c697a6564000000000000000000000000000000000000602082015250565b6000612518602e83611c8c565b9150612523826124bc565b604082019050919050565b600060208201905081810360008301526125478161250b565b9050919050565b7f45524332303a2064656372656173656420616c6c6f77616e63652062656c6f7760008201527f207a65726f000000000000000000000000000000000000000000000000000000602082015250565b60006125aa602583611c8c565b91506125b58261254e565b604082019050919050565b600060208201905081810360008301526125d98161259d565b9050919050565b7f45524332303a20617070726f76652066726f6d20746865207a65726f2061646460008201527f7265737300000000000000000000000000000000000000000000000000000000602082015250565b600061263c602483611c8c565b9150612647826125e0565b604082019050919050565b6000602082019050818103600083015261266b8161262f565b9050919050565b7f45524332303a20617070726f766520746f20746865207a65726f20616464726560008201527f7373000000000000000000000000000000000000000000000000000000000000602082015250565b60006126ce602283611c8c565b91506126d982612672565b604082019050919050565b600060208201905081810360008301526126fd816126c1565b9050919050565b7f45524332303a20696e73756666696369656e7420616c6c6f77616e6365000000600082015250565b600061273a601d83611c8c565b915061274582612704565b602082019050919050565b600060208201905081810360008301526127698161272d565b9050919050565b7f45524332303a207472616e736665722066726f6d20746865207a65726f20616460008201527f6472657373000000000000000000000000000000000000000000000000000000602082015250565b60006127cc602583611c8c565b91506127d782612770565b604082019050919050565b600060208201905081810360008301526127fb816127bf565b9050919050565b7f45524332303a207472616e7366657220746f20746865207a65726f206164647260008201527f6573730000000000000000000000000000000000000000000000000000000000602082015250565b600061285e602383611c8c565b915061286982612802565b604082019050919050565b6000602082019050818103600083015261288d81612851565b9050919050565b7f45524332303a207472616e7366657220616d6f756e742065786365656473206260008201527f616c616e63650000000000000000000000000000000000000000000000000000602082015250565b60006128f0602683611c8c565b91506128fb82612894565b604082019050919050565b6000602082019050818103600083015261291f816128e3565b9050919050565b61292f81612098565b811461293a57600080fd5b50565b60008151905061294c81612926565b92915050565b60006020828403121561296857612967611d46565b5b60006129768482850161293d565b91505092915050565b7f45524331393637557067726164653a206e657720696d706c656d656e7461746960008201527f6f6e206973206e6f742055555053000000000000000000000000000000000000602082015250565b60006129db602e83611c8c565b91506129e68261297f565b604082019050919050565b60006020820190508181036000830152612a0a816129ce565b9050919050565b7f45524331393637557067726164653a20756e737570706f727465642070726f7860008201527f6961626c65555549440000000000000000000000000000000000000000000000602082015250565b6000612a6d602983611c8c565b9150612a7882612a11565b604082019050919050565b60006020820190508181036000830152612a9c81612a60565b9050919050565b7f496e697469616c697a61626c653a20636f6e7472616374206973206e6f74206960008201527f6e697469616c697a696e67000000000000000000000000000000000000000000602082015250565b6000612aff602b83611c8c565b9150612b0a82612aa3565b604082019050919050565b60006020820190508181036000830152612b2e81612af2565b9050919050565b7f45524332303a206d696e7420746f20746865207a65726f206164647265737300600082015250565b6000612b6b601f83611c8c565b9150612b7682612b35565b602082019050919050565b60006020820190508181036000830152612b9a81612b5e565b9050919050565b7f455243313936373a206e657720696d706c656d656e746174696f6e206973206e60008201527f6f74206120636f6e747261637400000000000000000000000000000000000000602082015250565b6000612bfd602d83611c8c565b9150612c0882612ba1565b604082019050919050565b60006020820190508181036000830152612c2c81612bf0565b9050919050565b7f416464726573733a2064656c65676174652063616c6c20746f206e6f6e2d636f60008201527f6e74726163740000000000000000000000000000000000000000000000000000602082015250565b6000612c8f602683611c8c565b9150612c9a82612c33565b604082019050919050565b60006020820190508181036000830152612cbe81612c82565b9050919050565b600081519050919050565b600081905092915050565b6000612ce682612cc5565b612cf08185612cd0565b9350612d00818560208601611c9d565b80840191505092915050565b6000612d188284612cdb565b91508190509291505056fe416464726573733a206c6f772d6c6576656c2064656c65676174652063616c6c206661696c6564a26469706673582212207bba4a04c5f1d9745a2775bca7e89b9dcd2731a6ce4a9a177850cdb954f5d4ee64736f6c634300080c0033",
  "immutableReferences": {
    "620": [
      {
        "length": 32,
        "start": 1588
      },
      {
        "length": 32,
        "start": 1731
      },
      {
        "length": 32,
        "start": 2151
      },
      {
        "length": 32,
        "start": 2294
      },
      {
        "length": 32,
        "start": 2470
      }
    ]
  },
  "source": "// SPDX-License-Identifier: MIT\npragma solidity >=0.4.0 <0.9.0;\n\nimport \"@openzeppelin/contracts-upgradeable/token/ERC20/ERC20Upgradeable.sol\";\nimport \"@openzeppelin/contracts-upgradeable/access/OwnableUpgradeable.sol\";\nimport \"@openzeppelin/contracts-upgradeable/proxy/utils/Initializable.sol\";\nimport \"@openzeppelin/contracts-upgradeable/proxy/utils/UUPSUpgradeable.sol\";\n// import \"@openzeppelin/contracts/token/ERC20/ERC20.sol\";\ncontract ERC20CustomUpgradeableV2 is Initializable, ERC20Upgradeable, UUPSUpgradeable {\n    string public setMessage;\n    function initialize() public initializer {\n        __ERC20_init(\"Mars\", \"MARS\");\n        _mint(msg.sender, 55555 * 10 ** 18); //1000000000000000000000n\n        // _mint(msg.sender, 10000000 * 10 ** decimals());\n        __UUPSUpgradeable_init();\n    }\n    // Public variable of type unsigned int to keep the number of counts\n    uint256 public count;\n    // Function that increments our counter\n    function increment() public {\n        count += 1;\n    }\n            // Function that increments our counter\n    function decrement() public {\n        count--;\n    }\n    // Not necessary getter to get the count value\n    function getCount() public view returns (uint256) {\n        return count;\n    }\n    function setText(string memory _setText) public {\n        setMessage = _setText;\n    }\n    function getText() public view returns(string memory) {\n        return(setMessage);\n    }\n    function _authorizeUpgrade(address newImplementation) internal override {\n    }\n}\n",
  "sourcePath": "/Users/pinkyjain/Downloads/BLOCKCHAIN/truffle-upgradable-proxypatterns/contracts/ERC20CustomUpgradeable/ERC20CustomUpgradeableV2.sol",
  "compiler": {
    "name": "solc",
    "version": "0.8.12+commit.f00d7308.Emscripten.clang"
  },
  "schemaVersion": "3.4.5",
  "updatedAt": "2022-03-05T11:19:08.658Z",
  "networkType": "ethereum",
  "devdoc": {
    "kind": "dev",
    "methods": {
      "allowance(address,address)": {
        "details": "See {IERC20-allowance}."
      },
      "approve(address,uint256)": {
        "details": "See {IERC20-approve}. NOTE: If `amount` is the maximum `uint256`, the allowance is not updated on `transferFrom`. This is semantically equivalent to an infinite approval. Requirements: - `spender` cannot be the zero address."
      },
      "balanceOf(address)": {
        "details": "See {IERC20-balanceOf}."
      },
      "decimals()": {
        "details": "Returns the number of decimals used to get its user representation. For example, if `decimals` equals `2`, a balance of `505` tokens should be displayed to a user as `5.05` (`505 / 10 ** 2`). Tokens usually opt for a value of 18, imitating the relationship between Ether and Wei. This is the value {ERC20} uses, unless this function is overridden; NOTE: This information is only used for _display_ purposes: it in no way affects any of the arithmetic of the contract, including {IERC20-balanceOf} and {IERC20-transfer}."
      },
      "decreaseAllowance(address,uint256)": {
        "details": "Atomically decreases the allowance granted to `spender` by the caller. This is an alternative to {approve} that can be used as a mitigation for problems described in {IERC20-approve}. Emits an {Approval} event indicating the updated allowance. Requirements: - `spender` cannot be the zero address. - `spender` must have allowance for the caller of at least `subtractedValue`."
      },
      "increaseAllowance(address,uint256)": {
        "details": "Atomically increases the allowance granted to `spender` by the caller. This is an alternative to {approve} that can be used as a mitigation for problems described in {IERC20-approve}. Emits an {Approval} event indicating the updated allowance. Requirements: - `spender` cannot be the zero address."
      },
      "name()": {
        "details": "Returns the name of the token."
      },
      "proxiableUUID()": {
        "details": "Implementation of the ERC1822 {proxiableUUID} function. This returns the storage slot used by the implementation. It is used to validate that the this implementation remains valid after an upgrade. IMPORTANT: A proxy pointing at a proxiable contract should not be considered proxiable itself, because this risks bricking a proxy that upgrades to it, by delegating to itself until out of gas. Thus it is critical that this function revert if invoked through a proxy. This is guaranteed by the `notDelegated` modifier."
      },
      "symbol()": {
        "details": "Returns the symbol of the token, usually a shorter version of the name."
      },
      "totalSupply()": {
        "details": "See {IERC20-totalSupply}."
      },
      "transfer(address,uint256)": {
        "details": "See {IERC20-transfer}. Requirements: - `to` cannot be the zero address. - the caller must have a balance of at least `amount`."
      },
      "transferFrom(address,address,uint256)": {
        "details": "See {IERC20-transferFrom}. Emits an {Approval} event indicating the updated allowance. This is not required by the EIP. See the note at the beginning of {ERC20}. NOTE: Does not update the allowance if the current allowance is the maximum `uint256`. Requirements: - `from` and `to` cannot be the zero address. - `from` must have a balance of at least `amount`. - the caller must have allowance for ``from``'s tokens of at least `amount`."
      },
      "upgradeTo(address)": {
        "details": "Upgrade the implementation of the proxy to `newImplementation`. Calls {_authorizeUpgrade}. Emits an {Upgraded} event."
      },
      "upgradeToAndCall(address,bytes)": {
        "details": "Upgrade the implementation of the proxy to `newImplementation`, and subsequently execute the function call encoded in `data`. Calls {_authorizeUpgrade}. Emits an {Upgraded} event."
      }
    },
    "version": 1
  },
  "userdoc": {
    "kind": "user",
    "methods": {},
    "version": 1
  }
}