{
  "contractName": "ERC20CustomUpgradeableV1",
  "abi": [
    {
      "anonymous": false,
      "inputs": [
        {
          "indexed": false,
          "internalType": "address",
          "name": "previousAdmin",
          "type": "address"
        },
        {
          "indexed": false,
          "internalType": "address",
          "name": "newAdmin",
          "type": "address"
        }
      ],
      "name": "AdminChanged",
      "type": "event"
    },
    {
      "anonymous": false,
      "inputs": [
        {
          "indexed": true,
          "internalType": "address",
          "name": "owner",
          "type": "address"
        },
        {
          "indexed": true,
          "internalType": "address",
          "name": "spender",
          "type": "address"
        },
        {
          "indexed": false,
          "internalType": "uint256",
          "name": "value",
          "type": "uint256"
        }
      ],
      "name": "Approval",
      "type": "event"
    },
    {
      "anonymous": false,
      "inputs": [
        {
          "indexed": true,
          "internalType": "address",
          "name": "beacon",
          "type": "address"
        }
      ],
      "name": "BeaconUpgraded",
      "type": "event"
    },
    {
      "anonymous": false,
      "inputs": [
        {
          "indexed": true,
          "internalType": "address",
          "name": "from",
          "type": "address"
        },
        {
          "indexed": true,
          "internalType": "address",
          "name": "to",
          "type": "address"
        },
        {
          "indexed": false,
          "internalType": "uint256",
          "name": "value",
          "type": "uint256"
        }
      ],
      "name": "Transfer",
      "type": "event"
    },
    {
      "anonymous": false,
      "inputs": [
        {
          "indexed": true,
          "internalType": "address",
          "name": "implementation",
          "type": "address"
        }
      ],
      "name": "Upgraded",
      "type": "event"
    },
    {
      "inputs": [
        {
          "internalType": "address",
          "name": "owner",
          "type": "address"
        },
        {
          "internalType": "address",
          "name": "spender",
          "type": "address"
        }
      ],
      "name": "allowance",
      "outputs": [
        {
          "internalType": "uint256",
          "name": "",
          "type": "uint256"
        }
      ],
      "stateMutability": "view",
      "type": "function",
      "constant": true
    },
    {
      "inputs": [
        {
          "internalType": "address",
          "name": "spender",
          "type": "address"
        },
        {
          "internalType": "uint256",
          "name": "amount",
          "type": "uint256"
        }
      ],
      "name": "approve",
      "outputs": [
        {
          "internalType": "bool",
          "name": "",
          "type": "bool"
        }
      ],
      "stateMutability": "nonpayable",
      "type": "function"
    },
    {
      "inputs": [
        {
          "internalType": "address",
          "name": "account",
          "type": "address"
        }
      ],
      "name": "balanceOf",
      "outputs": [
        {
          "internalType": "uint256",
          "name": "",
          "type": "uint256"
        }
      ],
      "stateMutability": "view",
      "type": "function",
      "constant": true
    },
    {
      "inputs": [],
      "name": "count",
      "outputs": [
        {
          "internalType": "uint256",
          "name": "",
          "type": "uint256"
        }
      ],
      "stateMutability": "view",
      "type": "function",
      "constant": true
    },
    {
      "inputs": [],
      "name": "decimals",
      "outputs": [
        {
          "internalType": "uint8",
          "name": "",
          "type": "uint8"
        }
      ],
      "stateMutability": "view",
      "type": "function",
      "constant": true
    },
    {
      "inputs": [
        {
          "internalType": "address",
          "name": "spender",
          "type": "address"
        },
        {
          "internalType": "uint256",
          "name": "subtractedValue",
          "type": "uint256"
        }
      ],
      "name": "decreaseAllowance",
      "outputs": [
        {
          "internalType": "bool",
          "name": "",
          "type": "bool"
        }
      ],
      "stateMutability": "nonpayable",
      "type": "function"
    },
    {
      "inputs": [
        {
          "internalType": "address",
          "name": "spender",
          "type": "address"
        },
        {
          "internalType": "uint256",
          "name": "addedValue",
          "type": "uint256"
        }
      ],
      "name": "increaseAllowance",
      "outputs": [
        {
          "internalType": "bool",
          "name": "",
          "type": "bool"
        }
      ],
      "stateMutability": "nonpayable",
      "type": "function"
    },
    {
      "inputs": [],
      "name": "name",
      "outputs": [
        {
          "internalType": "string",
          "name": "",
          "type": "string"
        }
      ],
      "stateMutability": "view",
      "type": "function",
      "constant": true
    },
    {
      "inputs": [],
      "name": "proxiableUUID",
      "outputs": [
        {
          "internalType": "bytes32",
          "name": "",
          "type": "bytes32"
        }
      ],
      "stateMutability": "view",
      "type": "function",
      "constant": true
    },
    {
      "inputs": [],
      "name": "setMessage",
      "outputs": [
        {
          "internalType": "string",
          "name": "",
          "type": "string"
        }
      ],
      "stateMutability": "view",
      "type": "function",
      "constant": true
    },
    {
      "inputs": [],
      "name": "symbol",
      "outputs": [
        {
          "internalType": "string",
          "name": "",
          "type": "string"
        }
      ],
      "stateMutability": "view",
      "type": "function",
      "constant": true
    },
    {
      "inputs": [],
      "name": "totalSupply",
      "outputs": [
        {
          "internalType": "uint256",
          "name": "",
          "type": "uint256"
        }
      ],
      "stateMutability": "view",
      "type": "function",
      "constant": true
    },
    {
      "inputs": [
        {
          "internalType": "address",
          "name": "to",
          "type": "address"
        },
        {
          "internalType": "uint256",
          "name": "amount",
          "type": "uint256"
        }
      ],
      "name": "transfer",
      "outputs": [
        {
          "internalType": "bool",
          "name": "",
          "type": "bool"
        }
      ],
      "stateMutability": "nonpayable",
      "type": "function"
    },
    {
      "inputs": [
        {
          "internalType": "address",
          "name": "from",
          "type": "address"
        },
        {
          "internalType": "address",
          "name": "to",
          "type": "address"
        },
        {
          "internalType": "uint256",
          "name": "amount",
          "type": "uint256"
        }
      ],
      "name": "transferFrom",
      "outputs": [
        {
          "internalType": "bool",
          "name": "",
          "type": "bool"
        }
      ],
      "stateMutability": "nonpayable",
      "type": "function"
    },
    {
      "inputs": [
        {
          "internalType": "address",
          "name": "newImplementation",
          "type": "address"
        }
      ],
      "name": "upgradeTo",
      "outputs": [],
      "stateMutability": "nonpayable",
      "type": "function"
    },
    {
      "inputs": [
        {
          "internalType": "address",
          "name": "newImplementation",
          "type": "address"
        },
        {
          "internalType": "bytes",
          "name": "data",
          "type": "bytes"
        }
      ],
      "name": "upgradeToAndCall",
      "outputs": [],
      "stateMutability": "payable",
      "type": "function",
      "payable": true
    },
    {
      "inputs": [],
      "name": "initialize",
      "outputs": [],
      "stateMutability": "nonpayable",
      "type": "function"
    },
    {
      "inputs": [],
      "name": "increment",
      "outputs": [],
      "stateMutability": "nonpayable",
      "type": "function"
    },
    {
      "inputs": [],
      "name": "getCount",
      "outputs": [
        {
          "internalType": "uint256",
          "name": "",
          "type": "uint256"
        }
      ],
      "stateMutability": "view",
      "type": "function",
      "constant": true
    },
    {
      "inputs": [
        {
          "internalType": "string",
          "name": "_setText",
          "type": "string"
        }
      ],
      "name": "setText",
      "outputs": [],
      "stateMutability": "nonpayable",
      "type": "function"
    }
  ],
  "bytecode": "0x60a06040523073ffffffffffffffffffffffffffffffffffffffff1660809073ffffffffffffffffffffffffffffffffffffffff1681525034801561004357600080fd5b50608051612c9e61007b600039600081816105c201528181610651015281816107f50152818161088401526109340152612c9e6000f3fe60806040526004361061011f5760003560e01c80635d3a1f9d116100a0578063a87d942c11610064578063a87d942c146103dc578063a9059cbb14610407578063d09de08a14610444578063dd62ed3e1461045b578063e90847f4146104985761011f565b80635d3a1f9d146102f757806370a08231146103205780638129fc1c1461035d57806395d89b4114610374578063a457c2d71461039f5761011f565b8063313ce567116100e7578063313ce5671461021f5780633659cfe61461024a57806339509351146102735780634f1ef286146102b057806352d1902d146102cc5761011f565b806306661abd1461012457806306fdde031461014f578063095ea7b31461017a57806318160ddd146101b757806323b872dd146101e2575b600080fd5b34801561013057600080fd5b506101396104c3565b6040516101469190611bae565b60405180910390f35b34801561015b57600080fd5b506101646104c9565b6040516101719190611c62565b60405180910390f35b34801561018657600080fd5b506101a1600480360381019061019c9190611d22565b61055b565b6040516101ae9190611d7d565b60405180910390f35b3480156101c357600080fd5b506101cc61057e565b6040516101d99190611bae565b60405180910390f35b3480156101ee57600080fd5b5061020960048036038101906102049190611d98565b610588565b6040516102169190611d7d565b60405180910390f35b34801561022b57600080fd5b506102346105b7565b6040516102419190611e07565b60405180910390f35b34801561025657600080fd5b50610271600480360381019061026c9190611e22565b6105c0565b005b34801561027f57600080fd5b5061029a60048036038101906102959190611d22565b610749565b6040516102a79190611d7d565b60405180910390f35b6102ca60048036038101906102c59190611f84565b6107f3565b005b3480156102d857600080fd5b506102e1610930565b6040516102ee9190611ff9565b60405180910390f35b34801561030357600080fd5b5061031e600480360381019061031991906120b5565b6109e9565b005b34801561032c57600080fd5b5061034760048036038101906103429190611e22565b610a03565b6040516103549190611bae565b60405180910390f35b34801561036957600080fd5b50610372610a4c565b005b34801561038057600080fd5b50610389610c0c565b6040516103969190611c62565b60405180910390f35b3480156103ab57600080fd5b506103c660048036038101906103c19190611d22565b610c9e565b6040516103d39190611d7d565b60405180910390f35b3480156103e857600080fd5b506103f1610d88565b6040516103fe9190611bae565b60405180910390f35b34801561041357600080fd5b5061042e60048036038101906104299190611d22565b610d92565b60405161043b9190611d7d565b60405180910390f35b34801561045057600080fd5b50610459610db5565b005b34801561046757600080fd5b50610482600480360381019061047d91906120fe565b610dd1565b60405161048f9190611bae565b60405180910390f35b3480156104a457600080fd5b506104ad610e58565b6040516104ba9190611c62565b60405180910390f35b60ca5481565b6060603680546104d89061216d565b80601f01602080910402602001604051908101604052809291908181526020018280546105049061216d565b80156105515780601f1061052657610100808354040283529160200191610551565b820191906000526020600020905b81548152906001019060200180831161053457829003601f168201915b5050505050905090565b600080610566610ee6565b9050610573818585610eee565b600191505092915050565b6000603554905090565b600080610593610ee6565b90506105a08582856110b9565b6105ab858585611145565b60019150509392505050565b60006012905090565b7f000000000000000000000000000000000000000000000000000000000000000073ffffffffffffffffffffffffffffffffffffffff163073ffffffffffffffffffffffffffffffffffffffff16141561064f576040517f08c379a000000000000000000000000000000000000000000000000000000000815260040161064690612211565b60405180910390fd5b7f000000000000000000000000000000000000000000000000000000000000000073ffffffffffffffffffffffffffffffffffffffff1661068e6113c9565b73ffffffffffffffffffffffffffffffffffffffff16146106e4576040517f08c379a00000000000000000000000000000000000000000000000000000000081526004016106db906122a3565b60405180910390fd5b6106ed81611420565b61074681600067ffffffffffffffff81111561070c5761070b611e59565b5b6040519080825280601f01601f19166020018201604052801561073e5781602001600182028036833780820191505090505b506000611423565b50565b600080610754610ee6565b90506107e8818585603460008673ffffffffffffffffffffffffffffffffffffffff1673ffffffffffffffffffffffffffffffffffffffff16815260200190815260200160002060008973ffffffffffffffffffffffffffffffffffffffff1673ffffffffffffffffffffffffffffffffffffffff168152602001908152602001600020546107e391906122f2565b610eee565b600191505092915050565b7f000000000000000000000000000000000000000000000000000000000000000073ffffffffffffffffffffffffffffffffffffffff163073ffffffffffffffffffffffffffffffffffffffff161415610882576040517f08c379a000000000000000000000000000000000000000000000000000000000815260040161087990612211565b60405180910390fd5b7f000000000000000000000000000000000000000000000000000000000000000073ffffffffffffffffffffffffffffffffffffffff166108c16113c9565b73ffffffffffffffffffffffffffffffffffffffff1614610917576040517f08c379a000000000000000000000000000000000000000000000000000000000815260040161090e906122a3565b60405180910390fd5b61092082611420565b61092c82826001611423565b5050565b60007f000000000000000000000000000000000000000000000000000000000000000073ffffffffffffffffffffffffffffffffffffffff163073ffffffffffffffffffffffffffffffffffffffff16146109c0576040517f08c379a00000000000000000000000000000000000000000000000000000000081526004016109b7906123ba565b60405180910390fd5b7f360894a13ba1a3210667c828492db98dca3e2076cc3735a920a3ca505d382bbc60001b905090565b8060c990805190602001906109ff929190611af2565b5050565b6000603360008373ffffffffffffffffffffffffffffffffffffffff1673ffffffffffffffffffffffffffffffffffffffff168152602001908152602001600020549050919050565b600060019054906101000a900460ff16610a745760008054906101000a900460ff1615610a7d565b610a7c611591565b5b610abc576040517f08c379a0000000000000000000000000000000000000000000000000000000008152600401610ab39061244c565b60405180910390fd5b60008060019054906101000a900460ff161590508015610b0c576001600060016101000a81548160ff02191690831515021790555060016000806101000a81548160ff0219169083151502179055505b610b806040518060400160405280600481526020017f4d617273000000000000000000000000000000000000000000000000000000008152506040518060400160405280600481526020017f4d415253000000000000000000000000000000000000000000000000000000008152506115a2565b610b9433690bc3a4806cfeba2c00006115ff565b610b9c611760565b6040518060400160405280600c81526020017f56312d5265706f7274696e67000000000000000000000000000000000000000081525060c99080519060200190610be7929190611af2565b508015610c095760008060016101000a81548160ff0219169083151502179055505b50565b606060378054610c1b9061216d565b80601f0160208091040260200160405190810160405280929190818152602001828054610c479061216d565b8015610c945780601f10610c6957610100808354040283529160200191610c94565b820191906000526020600020905b815481529060010190602001808311610c7757829003601f168201915b5050505050905090565b600080610ca9610ee6565b90506000603460008373ffffffffffffffffffffffffffffffffffffffff1673ffffffffffffffffffffffffffffffffffffffff16815260200190815260200160002060008673ffffffffffffffffffffffffffffffffffffffff1673ffffffffffffffffffffffffffffffffffffffff16815260200190815260200160002054905083811015610d6f576040517f08c379a0000000000000000000000000000000000000000000000000000000008152600401610d66906124de565b60405180910390fd5b610d7c8286868403610eee565b60019250505092915050565b600060ca54905090565b600080610d9d610ee6565b9050610daa818585611145565b600191505092915050565b600160ca6000828254610dc891906122f2565b92505081905550565b6000603460008473ffffffffffffffffffffffffffffffffffffffff1673ffffffffffffffffffffffffffffffffffffffff16815260200190815260200160002060008373ffffffffffffffffffffffffffffffffffffffff1673ffffffffffffffffffffffffffffffffffffffff16815260200190815260200160002054905092915050565b60c98054610e659061216d565b80601f0160208091040260200160405190810160405280929190818152602001828054610e919061216d565b8015610ede5780601f10610eb357610100808354040283529160200191610ede565b820191906000526020600020905b815481529060010190602001808311610ec157829003601f168201915b505050505081565b600033905090565b600073ffffffffffffffffffffffffffffffffffffffff168373ffffffffffffffffffffffffffffffffffffffff161415610f5e576040517f08c379a0000000000000000000000000000000000000000000000000000000008152600401610f5590612570565b60405180910390fd5b600073ffffffffffffffffffffffffffffffffffffffff168273ffffffffffffffffffffffffffffffffffffffff161415610fce576040517f08c379a0000000000000000000000000000000000000000000000000000000008152600401610fc590612602565b60405180910390fd5b80603460008573ffffffffffffffffffffffffffffffffffffffff1673ffffffffffffffffffffffffffffffffffffffff16815260200190815260200160002060008473ffffffffffffffffffffffffffffffffffffffff1673ffffffffffffffffffffffffffffffffffffffff168152602001908152602001600020819055508173ffffffffffffffffffffffffffffffffffffffff168373ffffffffffffffffffffffffffffffffffffffff167f8c5be1e5ebec7d5bd14f71427d1e84f3dd0314c0f7b2291e5b200ac8c7c3b925836040516110ac9190611bae565b60405180910390a3505050565b60006110c58484610dd1565b90507fffffffffffffffffffffffffffffffffffffffffffffffffffffffffffffffff811461113f5781811015611131576040517f08c379a00000000000000000000000000000000000000000000000000000000081526004016111289061266e565b60405180910390fd5b61113e8484848403610eee565b5b50505050565b600073ffffffffffffffffffffffffffffffffffffffff168373ffffffffffffffffffffffffffffffffffffffff1614156111b5576040517f08c379a00000000000000000000000000000000000000000000000000000000081526004016111ac90612700565b60405180910390fd5b600073ffffffffffffffffffffffffffffffffffffffff168273ffffffffffffffffffffffffffffffffffffffff161415611225576040517f08c379a000000000000000000000000000000000000000000000000000000000815260040161121c90612792565b60405180910390fd5b6112308383836117b1565b6000603360008573ffffffffffffffffffffffffffffffffffffffff1673ffffffffffffffffffffffffffffffffffffffff168152602001908152602001600020549050818110156112b7576040517f08c379a00000000000000000000000000000000000000000000000000000000081526004016112ae90612824565b60405180910390fd5b818103603360008673ffffffffffffffffffffffffffffffffffffffff1673ffffffffffffffffffffffffffffffffffffffff1681526020019081526020016000208190555081603360008573ffffffffffffffffffffffffffffffffffffffff1673ffffffffffffffffffffffffffffffffffffffff168152602001908152602001600020600082825461134c91906122f2565b925050819055508273ffffffffffffffffffffffffffffffffffffffff168473ffffffffffffffffffffffffffffffffffffffff167fddf252ad1be2c89b69c2b068fc378daa952ba7f163c4a11628f55a4df523b3ef846040516113b09190611bae565b60405180910390a36113c38484846117b6565b50505050565b60006113f77f360894a13ba1a3210667c828492db98dca3e2076cc3735a920a3ca505d382bbc60001b6117bb565b60000160009054906101000a900473ffffffffffffffffffffffffffffffffffffffff16905090565b50565b61144f7f4910fdfa16fed3260ed0e7147f7cc6da11a60208b5b9406d12a635614ffd914360001b6117c5565b60000160009054906101000a900460ff16156114735761146e836117cf565b61158c565b8273ffffffffffffffffffffffffffffffffffffffff166352d1902d6040518163ffffffff1660e01b8152600401602060405180830381865afa9250505080156114db57506040513d601f19601f820116820180604052508101906114d89190612870565b60015b61151a576040517f08c379a00000000000000000000000000000000000000000000000000000000081526004016115119061290f565b60405180910390fd5b7f360894a13ba1a3210667c828492db98dca3e2076cc3735a920a3ca505d382bbc60001b811461157f576040517f08c379a0000000000000000000000000000000000000000000000000000000008152600401611576906129a1565b60405180910390fd5b5061158b838383611888565b5b505050565b600061159c306118b4565b15905090565b600060019054906101000a900460ff166115f1576040517f08c379a00000000000000000000000000000000000000000000000000000000081526004016115e890612a33565b60405180910390fd5b6115fb82826118d7565b5050565b600073ffffffffffffffffffffffffffffffffffffffff168273ffffffffffffffffffffffffffffffffffffffff16141561166f576040517f08c379a000000000000000000000000000000000000000000000000000000000815260040161166690612a9f565b60405180910390fd5b61167b600083836117b1565b806035600082825461168d91906122f2565b9250508190555080603360008473ffffffffffffffffffffffffffffffffffffffff1673ffffffffffffffffffffffffffffffffffffffff16815260200190815260200160002060008282546116e391906122f2565b925050819055508173ffffffffffffffffffffffffffffffffffffffff16600073ffffffffffffffffffffffffffffffffffffffff167fddf252ad1be2c89b69c2b068fc378daa952ba7f163c4a11628f55a4df523b3ef836040516117489190611bae565b60405180910390a361175c600083836117b6565b5050565b600060019054906101000a900460ff166117af576040517f08c379a00000000000000000000000000000000000000000000000000000000081526004016117a690612a33565b60405180910390fd5b565b505050565b505050565b6000819050919050565b6000819050919050565b6117d8816118b4565b611817576040517f08c379a000000000000000000000000000000000000000000000000000000000815260040161180e90612b31565b60405180910390fd5b806118447f360894a13ba1a3210667c828492db98dca3e2076cc3735a920a3ca505d382bbc60001b6117bb565b60000160006101000a81548173ffffffffffffffffffffffffffffffffffffffff021916908373ffffffffffffffffffffffffffffffffffffffff16021790555050565b61189183611958565b60008251118061189e5750805b156118af576118ad83836119a7565b505b505050565b6000808273ffffffffffffffffffffffffffffffffffffffff163b119050919050565b600060019054906101000a900460ff16611926576040517f08c379a000000000000000000000000000000000000000000000000000000000815260040161191d90612a33565b60405180910390fd5b816036908051906020019061193c929190611af2565b508060379080519060200190611953929190611af2565b505050565b611961816117cf565b8073ffffffffffffffffffffffffffffffffffffffff167fbc7cd75a20ee27fd9adebab32041f755214dbc6bffa90cc0225b39da2e5c2d3b60405160405180910390a250565b60606119b2836118b4565b6119f1576040517f08c379a00000000000000000000000000000000000000000000000000000000081526004016119e890612bc3565b60405180910390fd5b6000808473ffffffffffffffffffffffffffffffffffffffff1684604051611a199190612c2a565b600060405180830381855af49150503d8060008114611a54576040519150601f19603f3d011682016040523d82523d6000602084013e611a59565b606091505b5091509150611a818282604051806060016040528060278152602001612c4260279139611a8b565b9250505092915050565b60608315611a9b57829050611aeb565b600083511115611aae5782518084602001fd5b816040517f08c379a0000000000000000000000000000000000000000000000000000000008152600401611ae29190611c62565b60405180910390fd5b9392505050565b828054611afe9061216d565b90600052602060002090601f016020900481019282611b205760008555611b67565b82601f10611b3957805160ff1916838001178555611b67565b82800160010185558215611b67579182015b82811115611b66578251825591602001919060010190611b4b565b5b509050611b749190611b78565b5090565b5b80821115611b91576000816000905550600101611b79565b5090565b6000819050919050565b611ba881611b95565b82525050565b6000602082019050611bc36000830184611b9f565b92915050565b600081519050919050565b600082825260208201905092915050565b60005b83811015611c03578082015181840152602081019050611be8565b83811115611c12576000848401525b50505050565b6000601f19601f8301169050919050565b6000611c3482611bc9565b611c3e8185611bd4565b9350611c4e818560208601611be5565b611c5781611c18565b840191505092915050565b60006020820190508181036000830152611c7c8184611c29565b905092915050565b6000604051905090565b600080fd5b600080fd5b600073ffffffffffffffffffffffffffffffffffffffff82169050919050565b6000611cc382611c98565b9050919050565b611cd381611cb8565b8114611cde57600080fd5b50565b600081359050611cf081611cca565b92915050565b611cff81611b95565b8114611d0a57600080fd5b50565b600081359050611d1c81611cf6565b92915050565b60008060408385031215611d3957611d38611c8e565b5b6000611d4785828601611ce1565b9250506020611d5885828601611d0d565b9150509250929050565b60008115159050919050565b611d7781611d62565b82525050565b6000602082019050611d926000830184611d6e565b92915050565b600080600060608486031215611db157611db0611c8e565b5b6000611dbf86828701611ce1565b9350506020611dd086828701611ce1565b9250506040611de186828701611d0d565b9150509250925092565b600060ff82169050919050565b611e0181611deb565b82525050565b6000602082019050611e1c6000830184611df8565b92915050565b600060208284031215611e3857611e37611c8e565b5b6000611e4684828501611ce1565b91505092915050565b600080fd5b600080fd5b7f4e487b7100000000000000000000000000000000000000000000000000000000600052604160045260246000fd5b611e9182611c18565b810181811067ffffffffffffffff82111715611eb057611eaf611e59565b5b80604052505050565b6000611ec3611c84565b9050611ecf8282611e88565b919050565b600067ffffffffffffffff821115611eef57611eee611e59565b5b611ef882611c18565b9050602081019050919050565b82818337600083830152505050565b6000611f27611f2284611ed4565b611eb9565b905082815260208101848484011115611f4357611f42611e54565b5b611f4e848285611f05565b509392505050565b600082601f830112611f6b57611f6a611e4f565b5b8135611f7b848260208601611f14565b91505092915050565b60008060408385031215611f9b57611f9a611c8e565b5b6000611fa985828601611ce1565b925050602083013567ffffffffffffffff811115611fca57611fc9611c93565b5b611fd685828601611f56565b9150509250929050565b6000819050919050565b611ff381611fe0565b82525050565b600060208201905061200e6000830184611fea565b92915050565b600067ffffffffffffffff82111561202f5761202e611e59565b5b61203882611c18565b9050602081019050919050565b600061205861205384612014565b611eb9565b90508281526020810184848401111561207457612073611e54565b5b61207f848285611f05565b509392505050565b600082601f83011261209c5761209b611e4f565b5b81356120ac848260208601612045565b91505092915050565b6000602082840312156120cb576120ca611c8e565b5b600082013567ffffffffffffffff8111156120e9576120e8611c93565b5b6120f584828501612087565b91505092915050565b6000806040838503121561211557612114611c8e565b5b600061212385828601611ce1565b925050602061213485828601611ce1565b9150509250929050565b7f4e487b7100000000000000000000000000000000000000000000000000000000600052602260045260246000fd5b6000600282049050600182168061218557607f821691505b602082108114156121995761219861213e565b5b50919050565b7f46756e6374696f6e206d7573742062652063616c6c6564207468726f7567682060008201527f64656c656761746563616c6c0000000000000000000000000000000000000000602082015250565b60006121fb602c83611bd4565b91506122068261219f565b604082019050919050565b6000602082019050818103600083015261222a816121ee565b9050919050565b7f46756e6374696f6e206d7573742062652063616c6c6564207468726f7567682060008201527f6163746976652070726f78790000000000000000000000000000000000000000602082015250565b600061228d602c83611bd4565b915061229882612231565b604082019050919050565b600060208201905081810360008301526122bc81612280565b9050919050565b7f4e487b7100000000000000000000000000000000000000000000000000000000600052601160045260246000fd5b60006122fd82611b95565b915061230883611b95565b9250827fffffffffffffffffffffffffffffffffffffffffffffffffffffffffffffffff0382111561233d5761233c6122c3565b5b828201905092915050565b7f555550535570677261646561626c653a206d757374206e6f742062652063616c60008201527f6c6564207468726f7567682064656c656761746563616c6c0000000000000000602082015250565b60006123a4603883611bd4565b91506123af82612348565b604082019050919050565b600060208201905081810360008301526123d381612397565b9050919050565b7f496e697469616c697a61626c653a20636f6e747261637420697320616c72656160008201527f647920696e697469616c697a6564000000000000000000000000000000000000602082015250565b6000612436602e83611bd4565b9150612441826123da565b604082019050919050565b6000602082019050818103600083015261246581612429565b9050919050565b7f45524332303a2064656372656173656420616c6c6f77616e63652062656c6f7760008201527f207a65726f000000000000000000000000000000000000000000000000000000602082015250565b60006124c8602583611bd4565b91506124d38261246c565b604082019050919050565b600060208201905081810360008301526124f7816124bb565b9050919050565b7f45524332303a20617070726f76652066726f6d20746865207a65726f2061646460008201527f7265737300000000000000000000000000000000000000000000000000000000602082015250565b600061255a602483611bd4565b9150612565826124fe565b604082019050919050565b600060208201905081810360008301526125898161254d565b9050919050565b7f45524332303a20617070726f766520746f20746865207a65726f20616464726560008201527f7373000000000000000000000000000000000000000000000000000000000000602082015250565b60006125ec602283611bd4565b91506125f782612590565b604082019050919050565b6000602082019050818103600083015261261b816125df565b9050919050565b7f45524332303a20696e73756666696369656e7420616c6c6f77616e6365000000600082015250565b6000612658601d83611bd4565b915061266382612622565b602082019050919050565b600060208201905081810360008301526126878161264b565b9050919050565b7f45524332303a207472616e736665722066726f6d20746865207a65726f20616460008201527f6472657373000000000000000000000000000000000000000000000000000000602082015250565b60006126ea602583611bd4565b91506126f58261268e565b604082019050919050565b60006020820190508181036000830152612719816126dd565b9050919050565b7f45524332303a207472616e7366657220746f20746865207a65726f206164647260008201527f6573730000000000000000000000000000000000000000000000000000000000602082015250565b600061277c602383611bd4565b915061278782612720565b604082019050919050565b600060208201905081810360008301526127ab8161276f565b9050919050565b7f45524332303a207472616e7366657220616d6f756e742065786365656473206260008201527f616c616e63650000000000000000000000000000000000000000000000000000602082015250565b600061280e602683611bd4565b9150612819826127b2565b604082019050919050565b6000602082019050818103600083015261283d81612801565b9050919050565b61284d81611fe0565b811461285857600080fd5b50565b60008151905061286a81612844565b92915050565b60006020828403121561288657612885611c8e565b5b60006128948482850161285b565b91505092915050565b7f45524331393637557067726164653a206e657720696d706c656d656e7461746960008201527f6f6e206973206e6f742055555053000000000000000000000000000000000000602082015250565b60006128f9602e83611bd4565b91506129048261289d565b604082019050919050565b60006020820190508181036000830152612928816128ec565b9050919050565b7f45524331393637557067726164653a20756e737570706f727465642070726f7860008201527f6961626c65555549440000000000000000000000000000000000000000000000602082015250565b600061298b602983611bd4565b91506129968261292f565b604082019050919050565b600060208201905081810360008301526129ba8161297e565b9050919050565b7f496e697469616c697a61626c653a20636f6e7472616374206973206e6f74206960008201527f6e697469616c697a696e67000000000000000000000000000000000000000000602082015250565b6000612a1d602b83611bd4565b9150612a28826129c1565b604082019050919050565b60006020820190508181036000830152612a4c81612a10565b9050919050565b7f45524332303a206d696e7420746f20746865207a65726f206164647265737300600082015250565b6000612a89601f83611bd4565b9150612a9482612a53565b602082019050919050565b60006020820190508181036000830152612ab881612a7c565b9050919050565b7f455243313936373a206e657720696d706c656d656e746174696f6e206973206e60008201527f6f74206120636f6e747261637400000000000000000000000000000000000000602082015250565b6000612b1b602d83611bd4565b9150612b2682612abf565b604082019050919050565b60006020820190508181036000830152612b4a81612b0e565b9050919050565b7f416464726573733a2064656c65676174652063616c6c20746f206e6f6e2d636f60008201527f6e74726163740000000000000000000000000000000000000000000000000000602082015250565b6000612bad602683611bd4565b9150612bb882612b51565b604082019050919050565b60006020820190508181036000830152612bdc81612ba0565b9050919050565b600081519050919050565b600081905092915050565b6000612c0482612be3565b612c0e8185612bee565b9350612c1e818560208601611be5565b80840191505092915050565b6000612c368284612bf9565b91508190509291505056fe416464726573733a206c6f772d6c6576656c2064656c65676174652063616c6c206661696c6564a2646970667358221220ad507c91435896b97e1b1769d469a01aa6a1c83ce82d1e93969f63044709b80864736f6c634300080c0033",
  "immutableReferences": {
    "620": [
      {
        "length": 32,
        "start": 1474
      },
      {
        "length": 32,
        "start": 1617
      },
      {
        "length": 32,
        "start": 2037
      },
      {
        "length": 32,
        "start": 2180
      },
      {
        "length": 32,
        "start": 2356
      }
    ]
  },
  "source": "// SPDX-License-Identifier: MIT\npragma solidity >=0.4.0 <0.9.0;\n\nimport \"@openzeppelin/contracts-upgradeable/token/ERC20/ERC20Upgradeable.sol\";\nimport \"@openzeppelin/contracts-upgradeable/access/OwnableUpgradeable.sol\";\nimport \"@openzeppelin/contracts-upgradeable/proxy/utils/Initializable.sol\";\nimport \"@openzeppelin/contracts-upgradeable/proxy/utils/UUPSUpgradeable.sol\";\n// import \"@openzeppelin/contracts/token/ERC20/ERC20.sol\";\ncontract ERC20CustomUpgradeableV1 is Initializable, ERC20Upgradeable, UUPSUpgradeable {\n  string public setMessage;\n    function initialize() public initializer {\n        __ERC20_init(\"Mars\", \"MARS\");\n        _mint(msg.sender, 55555 * 10 ** 18); //1000000000000000000000n\n        // _mint(msg.sender, 10000000 * 10 ** decimals());\n        __UUPSUpgradeable_init();\n        setMessage = \"V1-Reporting\";\n    }\n    // Public variable of type unsigned int to keep the number of counts\n    uint256 public count;\n \n\n    // Function that increments our counter\n    function increment() public {\n        count += 1;\n    }\n    // Not necessary getter to get the count value\n    function getCount() public view returns (uint256) {\n        return count;\n    }\n\n    function setText(string memory _setText) public {\n        setMessage = _setText;\n    }\n\n    function _authorizeUpgrade(address newImplementation) internal override {\n    }\n}\n",
  "sourcePath": "/Users/pinkyjain/Downloads/BLOCKCHAIN/truffle-upgradable-proxypatterns/contracts/ERC20CustomUpgradeable/ERC20CustomUpgradeableV1.sol",
  "compiler": {
    "name": "solc",
    "version": "0.8.12+commit.f00d7308.Emscripten.clang"
  },
  "schemaVersion": "3.4.5",
  "updatedAt": "2022-03-05T11:19:08.652Z",
  "networkType": "ethereum",
  "devdoc": {
    "kind": "dev",
    "methods": {
      "allowance(address,address)": {
        "details": "See {IERC20-allowance}."
      },
      "approve(address,uint256)": {
        "details": "See {IERC20-approve}. NOTE: If `amount` is the maximum `uint256`, the allowance is not updated on `transferFrom`. This is semantically equivalent to an infinite approval. Requirements: - `spender` cannot be the zero address."
      },
      "balanceOf(address)": {
        "details": "See {IERC20-balanceOf}."
      },
      "decimals()": {
        "details": "Returns the number of decimals used to get its user representation. For example, if `decimals` equals `2`, a balance of `505` tokens should be displayed to a user as `5.05` (`505 / 10 ** 2`). Tokens usually opt for a value of 18, imitating the relationship between Ether and Wei. This is the value {ERC20} uses, unless this function is overridden; NOTE: This information is only used for _display_ purposes: it in no way affects any of the arithmetic of the contract, including {IERC20-balanceOf} and {IERC20-transfer}."
      },
      "decreaseAllowance(address,uint256)": {
        "details": "Atomically decreases the allowance granted to `spender` by the caller. This is an alternative to {approve} that can be used as a mitigation for problems described in {IERC20-approve}. Emits an {Approval} event indicating the updated allowance. Requirements: - `spender` cannot be the zero address. - `spender` must have allowance for the caller of at least `subtractedValue`."
      },
      "increaseAllowance(address,uint256)": {
        "details": "Atomically increases the allowance granted to `spender` by the caller. This is an alternative to {approve} that can be used as a mitigation for problems described in {IERC20-approve}. Emits an {Approval} event indicating the updated allowance. Requirements: - `spender` cannot be the zero address."
      },
      "name()": {
        "details": "Returns the name of the token."
      },
      "proxiableUUID()": {
        "details": "Implementation of the ERC1822 {proxiableUUID} function. This returns the storage slot used by the implementation. It is used to validate that the this implementation remains valid after an upgrade. IMPORTANT: A proxy pointing at a proxiable contract should not be considered proxiable itself, because this risks bricking a proxy that upgrades to it, by delegating to itself until out of gas. Thus it is critical that this function revert if invoked through a proxy. This is guaranteed by the `notDelegated` modifier."
      },
      "symbol()": {
        "details": "Returns the symbol of the token, usually a shorter version of the name."
      },
      "totalSupply()": {
        "details": "See {IERC20-totalSupply}."
      },
      "transfer(address,uint256)": {
        "details": "See {IERC20-transfer}. Requirements: - `to` cannot be the zero address. - the caller must have a balance of at least `amount`."
      },
      "transferFrom(address,address,uint256)": {
        "details": "See {IERC20-transferFrom}. Emits an {Approval} event indicating the updated allowance. This is not required by the EIP. See the note at the beginning of {ERC20}. NOTE: Does not update the allowance if the current allowance is the maximum `uint256`. Requirements: - `from` and `to` cannot be the zero address. - `from` must have a balance of at least `amount`. - the caller must have allowance for ``from``'s tokens of at least `amount`."
      },
      "upgradeTo(address)": {
        "details": "Upgrade the implementation of the proxy to `newImplementation`. Calls {_authorizeUpgrade}. Emits an {Upgraded} event."
      },
      "upgradeToAndCall(address,bytes)": {
        "details": "Upgrade the implementation of the proxy to `newImplementation`, and subsequently execute the function call encoded in `data`. Calls {_authorizeUpgrade}. Emits an {Upgraded} event."
      }
    },
    "version": 1
  },
  "userdoc": {
    "kind": "user",
    "methods": {},
    "version": 1
  }
}